{
  "contractName": "DeFacebook",
  "abi": [
    {
      "inputs": [],
      "payable": false,
      "stateMutability": "nonpayable",
      "type": "constructor"
    },
    {
      "anonymous": false,
      "inputs": [
        {
          "indexed": false,
          "internalType": "uint256",
          "name": "id",
          "type": "uint256"
        },
        {
          "indexed": false,
          "internalType": "string",
          "name": "hash",
          "type": "string"
        },
        {
          "indexed": false,
          "internalType": "string",
          "name": "body",
          "type": "string"
        },
        {
          "indexed": false,
          "internalType": "uint256",
          "name": "tipAmount",
          "type": "uint256"
        },
        {
          "indexed": false,
          "internalType": "address payable",
          "name": "commenter",
          "type": "address"
        }
      ],
      "name": "CommentCreated",
      "type": "event"
    },
    {
      "anonymous": false,
      "inputs": [
        {
          "indexed": false,
          "internalType": "uint256",
          "name": "id",
          "type": "uint256"
        },
        {
          "indexed": false,
          "internalType": "string",
          "name": "hash",
          "type": "string"
        },
        {
          "indexed": false,
          "internalType": "string",
          "name": "body",
          "type": "string"
        },
        {
          "indexed": false,
          "internalType": "uint256",
          "name": "tipAmount",
          "type": "uint256"
        },
        {
          "indexed": false,
          "internalType": "address payable",
          "name": "commenter",
          "type": "address"
        }
      ],
      "name": "CommentTipped",
      "type": "event"
    },
    {
      "anonymous": false,
      "inputs": [
        {
          "indexed": false,
          "internalType": "uint256",
          "name": "id",
          "type": "uint256"
        },
        {
          "indexed": false,
          "internalType": "string",
          "name": "hash",
          "type": "string"
        },
        {
          "indexed": false,
          "internalType": "string",
          "name": "title",
          "type": "string"
        },
        {
          "indexed": false,
          "internalType": "string",
          "name": "body",
          "type": "string"
        },
        {
          "indexed": false,
          "internalType": "uint256",
          "name": "tipAmount",
          "type": "uint256"
        },
        {
          "indexed": false,
          "internalType": "address payable",
          "name": "author",
          "type": "address"
        }
      ],
      "name": "PostCreated",
      "type": "event"
    },
    {
      "anonymous": false,
      "inputs": [
        {
          "indexed": false,
          "internalType": "uint256",
          "name": "id",
          "type": "uint256"
        },
        {
          "indexed": false,
          "internalType": "string",
          "name": "hash",
          "type": "string"
        },
        {
          "indexed": false,
          "internalType": "string",
          "name": "title",
          "type": "string"
        },
        {
          "indexed": false,
          "internalType": "string",
          "name": "body",
          "type": "string"
        },
        {
          "indexed": false,
          "internalType": "uint256",
          "name": "tipAmount",
          "type": "uint256"
        },
        {
          "indexed": false,
          "internalType": "address payable",
          "name": "author",
          "type": "address"
        }
      ],
      "name": "PostTipped",
      "type": "event"
    },
    {
      "constant": true,
      "inputs": [
        {
          "internalType": "uint256",
          "name": "",
          "type": "uint256"
        }
      ],
      "name": "comments",
      "outputs": [
        {
          "internalType": "uint256",
          "name": "id",
          "type": "uint256"
        },
        {
          "internalType": "string",
          "name": "hash",
          "type": "string"
        },
        {
          "internalType": "string",
          "name": "body",
          "type": "string"
        },
        {
          "internalType": "uint256",
          "name": "tipAmount",
          "type": "uint256"
        },
        {
          "internalType": "address payable",
          "name": "commenter",
          "type": "address"
        }
      ],
      "payable": false,
      "stateMutability": "view",
      "type": "function"
    },
    {
      "constant": true,
      "inputs": [],
      "name": "commentsCount",
      "outputs": [
        {
          "internalType": "uint256",
          "name": "",
          "type": "uint256"
        }
      ],
      "payable": false,
      "stateMutability": "view",
      "type": "function"
    },
    {
      "constant": true,
      "inputs": [],
      "name": "name",
      "outputs": [
        {
          "internalType": "string",
          "name": "",
          "type": "string"
        }
      ],
      "payable": false,
      "stateMutability": "view",
      "type": "function"
    },
    {
      "constant": true,
      "inputs": [
        {
          "internalType": "uint256",
          "name": "",
          "type": "uint256"
        }
      ],
      "name": "posts",
      "outputs": [
        {
          "internalType": "uint256",
          "name": "id",
          "type": "uint256"
        },
        {
          "internalType": "string",
          "name": "hash",
          "type": "string"
        },
        {
          "internalType": "string",
          "name": "title",
          "type": "string"
        },
        {
          "internalType": "string",
          "name": "body",
          "type": "string"
        },
        {
          "internalType": "uint256",
          "name": "tipAmount",
          "type": "uint256"
        },
        {
          "internalType": "address payable",
          "name": "author",
          "type": "address"
        }
      ],
      "payable": false,
      "stateMutability": "view",
      "type": "function"
    },
    {
      "constant": true,
      "inputs": [],
      "name": "postsCount",
      "outputs": [
        {
          "internalType": "uint256",
          "name": "",
          "type": "uint256"
        }
      ],
      "payable": false,
      "stateMutability": "view",
      "type": "function"
    },
    {
      "constant": false,
      "inputs": [
        {
          "internalType": "string",
          "name": "_postHash",
          "type": "string"
        },
        {
          "internalType": "string",
          "name": "_title",
          "type": "string"
        },
        {
          "internalType": "string",
          "name": "_body",
          "type": "string"
        }
      ],
      "name": "createPost",
      "outputs": [],
      "payable": false,
      "stateMutability": "nonpayable",
      "type": "function"
    },
    {
      "constant": false,
      "inputs": [
        {
          "internalType": "uint256",
          "name": "_id",
          "type": "uint256"
        }
      ],
      "name": "tipPostCreator",
      "outputs": [],
      "payable": true,
      "stateMutability": "payable",
      "type": "function"
    },
    {
      "constant": false,
      "inputs": [
        {
          "internalType": "string",
          "name": "_commentHash",
          "type": "string"
        },
        {
          "internalType": "string",
          "name": "_commentBody",
          "type": "string"
        }
      ],
      "name": "createComment",
      "outputs": [],
      "payable": false,
      "stateMutability": "nonpayable",
      "type": "function"
    },
    {
      "constant": false,
      "inputs": [
        {
          "internalType": "uint256",
          "name": "_id",
          "type": "uint256"
        }
      ],
      "name": "tipCommenter",
      "outputs": [],
      "payable": true,
      "stateMutability": "payable",
      "type": "function"
    }
  ],
  "bytecode": "0x60806040526040518060400160405280600a81526020017f446546616365626f6f6b000000000000000000000000000000000000000000008152506000908051906020019062000051929190620000be565b50600060015560006002553480156200006957600080fd5b506040518060400160405280600a81526020017f446546616365626f6f6b0000000000000000000000000000000000000000000081525060009080519060200190620000b7929190620000be565b506200016d565b828054600181600116156101000203166002900490600052602060002090601f016020900481019282601f106200010157805160ff191683800117855562000132565b8280016001018555821562000132579182015b828111156200013157825182559160200191906001019062000114565b5b50905062000141919062000145565b5090565b6200016a91905b80821115620001665760008160009055506001016200014c565b5090565b90565b61219b806200017d6000396000f3fe6080604052600436106100865760003560e01c80638ebb4c15116100595780638ebb4c1514610341578063a1edee49146104a2578063b1b4f70014610601578063c9bf646d1461062f578063e8a4a1eb1461065a57610086565b806306fdde031461008b5780630b1e7f831461011b5780631cfd5c9d146102e85780632dcbe54514610316575b600080fd5b34801561009757600080fd5b506100a0610850565b6040518080602001828103825283818151815260200191508051906020019080838360005b838110156100e05780820151818401526020810190506100c5565b50505050905090810190601f16801561010d5780820380516001836020036101000a031916815260200191505b509250505060405180910390f35b34801561012757600080fd5b506101546004803603602081101561013e57600080fd5b81019080803590602001909291905050506108ee565b604051808781526020018060200180602001806020018681526020018573ffffffffffffffffffffffffffffffffffffffff1673ffffffffffffffffffffffffffffffffffffffff168152602001848103845289818151815260200191508051906020019080838360005b838110156101da5780820151818401526020810190506101bf565b50505050905090810190601f1680156102075780820380516001836020036101000a031916815260200191505b50848103835288818151815260200191508051906020019080838360005b83811015610240578082015181840152602081019050610225565b50505050905090810190601f16801561026d5780820380516001836020036101000a031916815260200191505b50848103825287818151815260200191508051906020019080838360005b838110156102a657808201518184015260208101905061028b565b50505050905090810190601f1680156102d35780820380516001836020036101000a031916815260200191505b50995050505050505050505060405180910390f35b610314600480360360208110156102fe57600080fd5b8101908080359060200190929190505050610b12565b005b34801561032257600080fd5b5061032b611108565b6040518082815260200191505060405180910390f35b34801561034d57600080fd5b5061037a6004803603602081101561036457600080fd5b810190808035906020019092919050505061110e565b6040518086815260200180602001806020018581526020018473ffffffffffffffffffffffffffffffffffffffff1673ffffffffffffffffffffffffffffffffffffffff168152602001838103835287818151815260200191508051906020019080838360005b838110156103fc5780820151818401526020810190506103e1565b50505050905090810190601f1680156104295780820380516001836020036101000a031916815260200191505b50838103825286818151815260200191508051906020019080838360005b83811015610462578082015181840152602081019050610447565b50505050905090810190601f16801561048f5780820380516001836020036101000a031916815260200191505b5097505050505050505060405180910390f35b3480156104ae57600080fd5b506105ff600480360360408110156104c557600080fd5b81019080803590602001906401000000008111156104e257600080fd5b8201836020820111156104f457600080fd5b8035906020019184600183028401116401000000008311171561051657600080fd5b91908080601f016020809104026020016040519081016040528093929190818152602001838380828437600081840152601f19601f8201169050808301925050505050505091929192908035906020019064010000000081111561057957600080fd5b82018360208201111561058b57600080fd5b803590602001918460018302840111640100000000831117156105ad57600080fd5b91908080601f016020809104026020016040519081016040528093929190818152602001838380828437600081840152601f19601f820116905080830192505050505050509192919290505050611294565b005b61062d6004803603602081101561061757600080fd5b8101908080359060200190929190505050611678565b005b34801561063b57600080fd5b50610644611b3e565b6040518082815260200191505060405180910390f35b34801561066657600080fd5b5061084e6004803603606081101561067d57600080fd5b810190808035906020019064010000000081111561069a57600080fd5b8201836020820111156106ac57600080fd5b803590602001918460018302840111640100000000831117156106ce57600080fd5b91908080601f016020809104026020016040519081016040528093929190818152602001838380828437600081840152601f19601f8201169050808301925050505050505091929192908035906020019064010000000081111561073157600080fd5b82018360208201111561074357600080fd5b8035906020019184600183028401116401000000008311171561076557600080fd5b91908080601f016020809104026020016040519081016040528093929190818152602001838380828437600081840152601f19601f820116905080830192505050505050509192919290803590602001906401000000008111156107c857600080fd5b8201836020820111156107da57600080fd5b803590602001918460018302840111640100000000831117156107fc57600080fd5b91908080601f016020809104026020016040519081016040528093929190818152602001838380828437600081840152601f19601f820116905080830192505050505050509192919290505050611b44565b005b60008054600181600116156101000203166002900480601f0160208091040260200160405190810160405280929190818152602001828054600181600116156101000203166002900480156108e65780601f106108bb576101008083540402835291602001916108e6565b820191906000526020600020905b8154815290600101906020018083116108c957829003601f168201915b505050505081565b6003602052806000526040600020600091509050806000015490806001018054600181600116156101000203166002900480601f0160208091040260200160405190810160405280929190818152602001828054600181600116156101000203166002900480156109a05780601f10610975576101008083540402835291602001916109a0565b820191906000526020600020905b81548152906001019060200180831161098357829003601f168201915b505050505090806002018054600181600116156101000203166002900480601f016020809104026020016040519081016040528092919081815260200182805460018160011615610100020316600290048015610a3e5780601f10610a1357610100808354040283529160200191610a3e565b820191906000526020600020905b815481529060010190602001808311610a2157829003601f168201915b505050505090806003018054600181600116156101000203166002900480601f016020809104026020016040519081016040528092919081815260200182805460018160011615610100020316600290048015610adc5780601f10610ab157610100808354040283529160200191610adc565b820191906000526020600020905b815481529060010190602001808311610abf57829003601f168201915b5050505050908060040154908060050160009054906101000a900473ffffffffffffffffffffffffffffffffffffffff16905086565b6000600154118015610b2657506001548111155b610b98576040517f08c379a000000000000000000000000000000000000000000000000000000000815260040180806020018281038252601d8152602001807f4d75737420657869737420706f73747320616e642076616c696420696400000081525060200191505060405180910390fd5b610ba0612030565b600360008381526020019081526020016000206040518060c001604052908160008201548152602001600182018054600181600116156101000203166002900480601f016020809104026020016040519081016040528092919081815260200182805460018160011615610100020316600290048015610c615780601f10610c3657610100808354040283529160200191610c61565b820191906000526020600020905b815481529060010190602001808311610c4457829003601f168201915b50505050508152602001600282018054600181600116156101000203166002900480601f016020809104026020016040519081016040528092919081815260200182805460018160011615610100020316600290048015610d035780601f10610cd857610100808354040283529160200191610d03565b820191906000526020600020905b815481529060010190602001808311610ce657829003601f168201915b50505050508152602001600382018054600181600116156101000203166002900480601f016020809104026020016040519081016040528092919081815260200182805460018160011615610100020316600290048015610da55780601f10610d7a57610100808354040283529160200191610da5565b820191906000526020600020905b815481529060010190602001808311610d8857829003601f168201915b50505050508152602001600482015481526020016005820160009054906101000a900473ffffffffffffffffffffffffffffffffffffffff1673ffffffffffffffffffffffffffffffffffffffff1673ffffffffffffffffffffffffffffffffffffffff1681525050905060008160a0015190508073ffffffffffffffffffffffffffffffffffffffff166108fc349081150290604051600060405180830381858888f19350505050158015610e5f573d6000803e3d6000fd5b50348260800151018260800181815250508160036000858152602001908152602001600020600082015181600001556020820151816001019080519060200190610eaa92919061207c565b506040820151816002019080519060200190610ec792919061207c565b506060820151816003019080519060200190610ee492919061207c565b506080820151816004015560a08201518160050160006101000a81548173ffffffffffffffffffffffffffffffffffffffff021916908373ffffffffffffffffffffffffffffffffffffffff1602179055509050507fe95f1d6bffe23e6139931bcdea8097548a1f20522ae5801a84d177ee7981855083836020015184604001518560600151866080015186604051808781526020018060200180602001806020018681526020018573ffffffffffffffffffffffffffffffffffffffff1673ffffffffffffffffffffffffffffffffffffffff168152602001848103845289818151815260200191508051906020019080838360005b83811015610ff6578082015181840152602081019050610fdb565b50505050905090810190601f1680156110235780820380516001836020036101000a031916815260200191505b50848103835288818151815260200191508051906020019080838360005b8381101561105c578082015181840152602081019050611041565b50505050905090810190601f1680156110895780820380516001836020036101000a031916815260200191505b50848103825287818151815260200191508051906020019080838360005b838110156110c25780820151818401526020810190506110a7565b50505050905090810190601f1680156110ef5780820380516001836020036101000a031916815260200191505b50995050505050505050505060405180910390a1505050565b60015481565b6004602052806000526040600020600091509050806000015490806001018054600181600116156101000203166002900480601f0160208091040260200160405190810160405280929190818152602001828054600181600116156101000203166002900480156111c05780601f10611195576101008083540402835291602001916111c0565b820191906000526020600020905b8154815290600101906020018083116111a357829003601f168201915b505050505090806002018054600181600116156101000203166002900480601f01602080910402602001604051908101604052809291908181526020018280546001816001161561010002031660029004801561125e5780601f106112335761010080835404028352916020019161125e565b820191906000526020600020905b81548152906001019060200180831161124157829003601f168201915b5050505050908060030154908060040160009054906101000a900473ffffffffffffffffffffffffffffffffffffffff16905085565b600082511161130b576040517f08c379a000000000000000000000000000000000000000000000000000000000815260040180806020018281038252601e8152602001807f436f6d6d656e742048617368206d757374206e6f7420626520656d707479000081525060200191505060405180910390fd5b6000815111611382576040517f08c379a000000000000000000000000000000000000000000000000000000000815260040180806020018281038252601e8152602001807f436f6d6d656e7420426f6479206d757374206e6f7420626520656d707479000081525060200191505060405180910390fd5b600073ffffffffffffffffffffffffffffffffffffffff163373ffffffffffffffffffffffffffffffffffffffff161415611425576040517f08c379a00000000000000000000000000000000000000000000000000000000081526004018080602001828103825260158152602001807f4d757374206578697374206d73672073656e646572000000000000000000000081525060200191505060405180910390fd5b6002600081548092919060010191905055506040518060a001604052806002548152602001838152602001828152602001600081526020013373ffffffffffffffffffffffffffffffffffffffff168152506004600060025481526020019081526020016000206000820151816000015560208201518160010190805190602001906114b292919061207c565b5060408201518160020190805190602001906114cf92919061207c565b506060820151816003015560808201518160040160006101000a81548173ffffffffffffffffffffffffffffffffffffffff021916908373ffffffffffffffffffffffffffffffffffffffff1602179055509050507fef9f9e744951f4105140c81977574ec6b18546c9bef85757323fd1a170d83f7060025483836000336040518086815260200180602001806020018581526020018473ffffffffffffffffffffffffffffffffffffffff1673ffffffffffffffffffffffffffffffffffffffff168152602001838103835287818151815260200191508051906020019080838360005b838110156115cf5780820151818401526020810190506115b4565b50505050905090810190601f1680156115fc5780820380516001836020036101000a031916815260200191505b50838103825286818151815260200191508051906020019080838360005b8381101561163557808201518184015260208101905061161a565b50505050905090810190601f1680156116625780820380516001836020036101000a031916815260200191505b5097505050505050505060405180910390a15050565b600060025411801561168c57506002548111155b6116fe576040517f08c379a000000000000000000000000000000000000000000000000000000000815260040180806020018281038252601b8152602001807f56616c696420696420616e6420657869737420636f6d6d656e7473000000000081525060200191505060405180910390fd5b6117066120fc565b600460008381526020019081526020016000206040518060a001604052908160008201548152602001600182018054600181600116156101000203166002900480601f0160208091040260200160405190810160405280929190818152602001828054600181600116156101000203166002900480156117c75780601f1061179c576101008083540402835291602001916117c7565b820191906000526020600020905b8154815290600101906020018083116117aa57829003601f168201915b50505050508152602001600282018054600181600116156101000203166002900480601f0160208091040260200160405190810160405280929190818152602001828054600181600116156101000203166002900480156118695780601f1061183e57610100808354040283529160200191611869565b820191906000526020600020905b81548152906001019060200180831161184c57829003601f168201915b50505050508152602001600382015481526020016004820160009054906101000a900473ffffffffffffffffffffffffffffffffffffffff1673ffffffffffffffffffffffffffffffffffffffff1673ffffffffffffffffffffffffffffffffffffffff168152505090506000816080015190508073ffffffffffffffffffffffffffffffffffffffff166108fc349081150290604051600060405180830381858888f19350505050158015611923573d6000803e3d6000fd5b5034826060015101826060018181525050816004600085815260200190815260200160002060008201518160000155602082015181600101908051906020019061196e92919061207c565b50604082015181600201908051906020019061198b92919061207c565b506060820151816003015560808201518160040160006101000a81548173ffffffffffffffffffffffffffffffffffffffff021916908373ffffffffffffffffffffffffffffffffffffffff1602179055509050507f53c36b75c7b75973bdd6c58d15a71105f3a321dcfe108bc4e4ee02b31e64899483836020015184604001518560600151856040518086815260200180602001806020018581526020018473ffffffffffffffffffffffffffffffffffffffff1673ffffffffffffffffffffffffffffffffffffffff168152602001838103835287818151815260200191508051906020019080838360005b83811015611a94578082015181840152602081019050611a79565b50505050905090810190601f168015611ac15780820380516001836020036101000a031916815260200191505b50838103825286818151815260200191508051906020019080838360005b83811015611afa578082015181840152602081019050611adf565b50505050905090810190601f168015611b275780820380516001836020036101000a031916815260200191505b5097505050505050505060405180910390a1505050565b60025481565b6000835111611bbb576040517f08c379a000000000000000000000000000000000000000000000000000000000815260040180806020018281038252601b8152602001807f506f73742048617368206d757374206e6f7420626520656d707479000000000081525060200191505060405180910390fd5b6000825111611c32576040517f08c379a00000000000000000000000000000000000000000000000000000000081526004018080602001828103825260178152602001807f5469746c65206d757374206e6f7420626520656d70747900000000000000000081525060200191505060405180910390fd5b6000815111611ca9576040517f08c379a00000000000000000000000000000000000000000000000000000000081526004018080602001828103825260168152602001807f426f6479206d757374206e6f7420626520656d7074790000000000000000000081525060200191505060405180910390fd5b600073ffffffffffffffffffffffffffffffffffffffff163373ffffffffffffffffffffffffffffffffffffffff161415611d4c576040517f08c379a00000000000000000000000000000000000000000000000000000000081526004018080602001828103825260158152602001807f4d73672073656e646572206d757374206578697374000000000000000000000081525060200191505060405180910390fd5b6001600081548092919060010191905055506040518060c001604052806001548152602001848152602001838152602001828152602001600081526020013373ffffffffffffffffffffffffffffffffffffffff16815250600360006001548152602001908152602001600020600082015181600001556020820151816001019080519060200190611ddf92919061207c565b506040820151816002019080519060200190611dfc92919061207c565b506060820151816003019080519060200190611e1992919061207c565b506080820151816004015560a08201518160050160006101000a81548173ffffffffffffffffffffffffffffffffffffffff021916908373ffffffffffffffffffffffffffffffffffffffff1602179055509050507f6dbf8011652ab6c578094a9a71e68b3aaa229e9556ac1da8264c9f191aac2395600154848484600033604051808781526020018060200180602001806020018681526020018573ffffffffffffffffffffffffffffffffffffffff1673ffffffffffffffffffffffffffffffffffffffff168152602001848103845289818151815260200191508051906020019080838360005b83811015611f1e578082015181840152602081019050611f03565b50505050905090810190601f168015611f4b5780820380516001836020036101000a031916815260200191505b50848103835288818151815260200191508051906020019080838360005b83811015611f84578082015181840152602081019050611f69565b50505050905090810190601f168015611fb15780820380516001836020036101000a031916815260200191505b50848103825287818151815260200191508051906020019080838360005b83811015611fea578082015181840152602081019050611fcf565b50505050905090810190601f1680156120175780820380516001836020036101000a031916815260200191505b50995050505050505050505060405180910390a1505050565b6040518060c001604052806000815260200160608152602001606081526020016060815260200160008152602001600073ffffffffffffffffffffffffffffffffffffffff1681525090565b828054600181600116156101000203166002900490600052602060002090601f016020900481019282601f106120bd57805160ff19168380011785556120eb565b828001600101855582156120eb579182015b828111156120ea5782518255916020019190600101906120cf565b5b5090506120f89190612141565b5090565b6040518060a0016040528060008152602001606081526020016060815260200160008152602001600073ffffffffffffffffffffffffffffffffffffffff1681525090565b61216391905b8082111561215f576000816000905550600101612147565b5090565b9056fea265627a7a7231582094eae452e7a001853bbab7bdd217fcd71f5ba8817579d946ef6c438497cc95f464736f6c63430005100032",
  "source": "// SPDX-License-Identifier: MIT\npragma solidity >=0.4.22 <0.9.0;\n\ncontract DeFacebook {\n  string public name = \"DeFacebook\";\n  uint public postsCount = 0;\n  uint public commentsCount = 0;\n  mapping(uint => Post) public posts;\n  mapping(uint => Comment) public comments;\n\n  struct Post {\n    uint id;\n    string hash;\n    string title;\n    string body;\n    uint tipAmount;\n    address payable author;\n  }\n\n  struct Comment {\n    uint id;\n    string hash;\n    string body;\n    uint tipAmount;\n    address payable commenter;\n  }\n\n  event PostCreated(\n    uint id,\n    string hash,\n    string title,\n    string body,\n    uint tipAmount,\n    address payable author\n  );\n\n  event CommentCreated(\n    uint id,\n    string hash,\n    string body,\n    uint tipAmount,\n    address payable commenter\n  );\n\n  event CommentTipped(\n    uint id,\n    string hash,\n    string body,\n    uint tipAmount,\n    address payable commenter\n  );\n\n  event PostTipped(\n    uint id,\n    string hash,\n    string title,\n    string body,\n    uint tipAmount,\n    address payable author\n  );\n\n  constructor() public {\n    name = \"DeFacebook\";\n  }\n\n  // Create posts\n  function createPost(string memory _postHash, string memory _title, string memory _body) public {\n    require(bytes(_postHash).length > 0, 'Post Hash must not be empty');\n    require(bytes(_title).length > 0, 'Title must not be empty');\n    require(bytes(_body).length > 0, 'Body must not be empty');\n    require(msg.sender != address(0), 'Msg sender must exist');\n\n    postsCount ++;\n    posts[postsCount] = Post(postsCount, _postHash, _title, _body, 0, msg.sender);\n    emit PostCreated(postsCount, _postHash, _title, _body, 0, msg.sender);\n  }\n\n  // Tip posts\n  function tipPostCreator(uint _id) public payable {\n    require(postsCount > 0 && _id <= postsCount, 'Must exist posts and valid id');\n\n    Post memory _post = posts[_id];\n    address payable _author = _post.author;\n\n    address(_author).transfer(msg.value);\n    _post.tipAmount = _post.tipAmount + msg.value;\n    posts[_id] = _post;\n\n    emit PostTipped(_id, _post.hash, _post.title, _post.body, _post.tipAmount, _author);\n  }\n\n  // Create comments\n  function createComment(string memory _commentHash, string memory _commentBody) public {\n    require(bytes(_commentHash).length > 0, 'Comment Hash must not be empty');\n    require(bytes(_commentBody).length > 0, 'Comment Body must not be empty');\n    require(msg.sender != address(0), 'Must exist msg sender');\n\n    commentsCount ++;\n    comments[commentsCount] = Comment(commentsCount, _commentHash, _commentBody, 0, msg.sender);\n    emit CommentCreated(commentsCount, _commentHash, _commentBody, 0, msg.sender);\n  }\n\n  // Tip comments\n  function tipCommenter(uint _id) public payable {\n    require(commentsCount > 0 && _id <= commentsCount, 'Valid id and exist comments');\n\n    Comment memory _comment = comments[_id];\n    address payable _commenter = _comment.commenter;\n\n    address(_commenter).transfer(msg.value);\n    _comment.tipAmount = _comment.tipAmount + msg.value;\n    comments[_id] = _comment;\n\n    emit CommentTipped(_id, _comment.hash, _comment.body, _comment.tipAmount, _commenter);\n  }\n\n}",
  "sourcePath": "/Users/apple/Documents/Ethereum/defacebook/src/contracts/DeFacebook.sol",
  "compiler": {
    "name": "solc",
    "version": "0.5.16+commit.9c3226ce.Emscripten.clang"
  },
  "schemaVersion": "3.4.0",
  "updatedAt": "2021-07-27T08:13:19.699Z",
  "devdoc": {
    "methods": {}
  },
  "userdoc": {
    "methods": {}
  }
}